{
  "_format": "hh-sol-artifact-1",
  "contractName": "Twitter",
  "sourceName": "contracts/Twitter.sol",
  "abi": [
    {
      "inputs": [],
      "stateMutability": "nonpayable",
      "type": "constructor"
    },
    {
      "anonymous": false,
      "inputs": [
        {
          "indexed": false,
          "internalType": "address",
          "name": "twitter",
          "type": "address"
        },
        {
          "indexed": false,
          "internalType": "uint256",
          "name": "id",
          "type": "uint256"
        },
        {
          "indexed": false,
          "internalType": "string",
          "name": "tweetText",
          "type": "string"
        },
        {
          "indexed": false,
          "internalType": "string",
          "name": "tweetImgUrl",
          "type": "string"
        },
        {
          "indexed": false,
          "internalType": "bool",
          "name": "isDeleted",
          "type": "bool"
        },
        {
          "indexed": false,
          "internalType": "uint256",
          "name": "timestamp",
          "type": "uint256"
        }
      ],
      "name": "TweetCreated",
      "type": "event"
    },
    {
      "anonymous": false,
      "inputs": [
        {
          "indexed": false,
          "internalType": "uint256",
          "name": "id",
          "type": "uint256"
        },
        {
          "indexed": false,
          "internalType": "bool",
          "name": "isDeleted",
          "type": "bool"
        }
      ],
      "name": "TweetDeleted",
      "type": "event"
    },
    {
      "inputs": [
        {
          "internalType": "string",
          "name": "_tweetText",
          "type": "string"
        },
        {
          "internalType": "string",
          "name": "_tweetImgUrl",
          "type": "string"
        }
      ],
      "name": "addTweet",
      "outputs": [],
      "stateMutability": "payable",
      "type": "function"
    },
    {
      "inputs": [
        {
          "internalType": "uint256",
          "name": "tweetId",
          "type": "uint256"
        },
        {
          "internalType": "bool",
          "name": "_isDeleted",
          "type": "bool"
        }
      ],
      "name": "deleteTweet",
      "outputs": [],
      "stateMutability": "nonpayable",
      "type": "function"
    },
    {
      "inputs": [],
      "name": "fetchAllTweets",
      "outputs": [
        {
          "components": [
            {
              "internalType": "address",
              "name": "twitter",
              "type": "address"
            },
            {
              "internalType": "uint256",
              "name": "id",
              "type": "uint256"
            },
            {
              "internalType": "string",
              "name": "tweetText",
              "type": "string"
            },
            {
              "internalType": "string",
              "name": "tweetImgUrl",
              "type": "string"
            },
            {
              "internalType": "bool",
              "name": "isDeleted",
              "type": "bool"
            },
            {
              "internalType": "uint256",
              "name": "timestamp",
              "type": "uint256"
            }
          ],
          "internalType": "struct Twitter.Tweet[]",
          "name": "",
          "type": "tuple[]"
        }
      ],
      "stateMutability": "view",
      "type": "function"
    },
    {
      "inputs": [],
      "name": "getMyTweets",
      "outputs": [
        {
          "components": [
            {
              "internalType": "address",
              "name": "twitter",
              "type": "address"
            },
            {
              "internalType": "uint256",
              "name": "id",
              "type": "uint256"
            },
            {
              "internalType": "string",
              "name": "tweetText",
              "type": "string"
            },
            {
              "internalType": "string",
              "name": "tweetImgUrl",
              "type": "string"
            },
            {
              "internalType": "bool",
              "name": "isDeleted",
              "type": "bool"
            },
            {
              "internalType": "uint256",
              "name": "timestamp",
              "type": "uint256"
            }
          ],
          "internalType": "struct Twitter.Tweet[]",
          "name": "",
          "type": "tuple[]"
        }
      ],
      "stateMutability": "view",
      "type": "function"
    },
    {
      "inputs": [
        {
          "internalType": "uint256",
          "name": "tweetId",
          "type": "uint256"
        }
      ],
      "name": "getTweet",
      "outputs": [
        {
          "internalType": "string",
          "name": "",
          "type": "string"
        },
        {
          "internalType": "string",
          "name": "",
          "type": "string"
        },
        {
          "internalType": "address",
          "name": "",
          "type": "address"
        }
      ],
      "stateMutability": "view",
      "type": "function"
    },
    {
      "inputs": [
        {
          "internalType": "address",
          "name": "_userAddress",
          "type": "address"
        }
      ],
      "name": "getUser",
      "outputs": [
        {
          "components": [
            {
              "internalType": "string",
              "name": "username",
              "type": "string"
            },
            {
              "internalType": "string",
              "name": "bio",
              "type": "string"
            },
            {
              "internalType": "string",
              "name": "profileImgUrl",
              "type": "string"
            },
            {
              "internalType": "string",
              "name": "profileBannerUrl",
              "type": "string"
            }
          ],
          "internalType": "struct Twitter.User",
          "name": "",
          "type": "tuple"
        }
      ],
      "stateMutability": "view",
      "type": "function"
    },
    {
      "inputs": [],
      "name": "owner",
      "outputs": [
        {
          "internalType": "address",
          "name": "",
          "type": "address"
        }
      ],
      "stateMutability": "view",
      "type": "function"
    },
    {
      "inputs": [
        {
          "internalType": "string",
          "name": "_username",
          "type": "string"
        },
        {
          "internalType": "string",
          "name": "_bio",
          "type": "string"
        },
        {
          "internalType": "string",
          "name": "_profileImgUrl",
          "type": "string"
        },
        {
          "internalType": "string",
          "name": "_profilebannerUrl",
          "type": "string"
        }
      ],
      "name": "updateUser",
      "outputs": [],
      "stateMutability": "nonpayable",
      "type": "function"
    }
  ],
  "bytecode": "0x608060405234801561001057600080fd5b50336000806101000a81548173ffffffffffffffffffffffffffffffffffffffff021916908373ffffffffffffffffffffffffffffffffffffffff1602179055506000600181905550612308806100686000396000f3fe60806040526004361061007b5760003560e01c8063aefedbc21161004e578063aefedbc21461012f578063b5c24a011461015a578063c3ad5ecb14610183578063f0312a37146101c25761007b565b80630af6e60f146100805780636f77926b146100ab5780637e75b408146100e85780638da5cb5b14610104575b600080fd5b34801561008c57600080fd5b506100956101eb565b6040516100a29190611771565b60405180910390f35b3480156100b757600080fd5b506100d260048036038101906100cd91906117d3565b6106f1565b6040516100df9190611878565b60405180910390f35b61010260048036038101906100fd91906119cf565b610992565b005b34801561011057600080fd5b50610119610b54565b6040516101269190611a56565b60405180910390f35b34801561013b57600080fd5b50610144610b78565b6040516101519190611771565b60405180910390f35b34801561016657600080fd5b50610181600480360381019061017c9190611a71565b6110ec565b005b34801561018f57600080fd5b506101aa60048036038101906101a59190611b74565b61117e565b6040516101b993929190611beb565b60405180910390f35b3480156101ce57600080fd5b506101e960048036038101906101e49190611c5c565b611395565b005b6060600060015467ffffffffffffffff81111561020b5761020a6118a4565b5b60405190808252806020026020018201604052801561024457816020015b6102316114a4565b8152602001906001900390816102295790505b5090506000805b60015481101561048b57600015156002600083815260200190815260200160002060040160009054906101000a900460ff1615150361047857600260008281526020019081526020016000206040518060c00160405290816000820160009054906101000a900473ffffffffffffffffffffffffffffffffffffffff1673ffffffffffffffffffffffffffffffffffffffff1673ffffffffffffffffffffffffffffffffffffffff1681526020016001820154815260200160028201805461031290611ccb565b80601f016020809104026020016040519081016040528092919081815260200182805461033e90611ccb565b801561038b5780601f106103605761010080835404028352916020019161038b565b820191906000526020600020905b81548152906001019060200180831161036e57829003601f168201915b505050505081526020016003820180546103a490611ccb565b80601f01602080910402602001604051908101604052809291908181526020018280546103d090611ccb565b801561041d5780601f106103f25761010080835404028352916020019161041d565b820191906000526020600020905b81548152906001019060200180831161040057829003601f168201915b505050505081526020016004820160009054906101000a900460ff1615151515815260200160058201548152505083838151811061045e5761045d611cfc565b5b6020026020010181905250818061047490611d5a565b9250505b808061048390611d5a565b91505061024b565b5060008167ffffffffffffffff8111156104a8576104a76118a4565b5b6040519080825280602002602001820160405280156104e157816020015b6104ce6114a4565b8152602001906001900390816104c65790505b50905060005b828110156106e757600260008281526020019081526020016000206040518060c00160405290816000820160009054906101000a900473ffffffffffffffffffffffffffffffffffffffff1673ffffffffffffffffffffffffffffffffffffffff1673ffffffffffffffffffffffffffffffffffffffff1681526020016001820154815260200160028201805461057d90611ccb565b80601f01602080910402602001604051908101604052809291908181526020018280546105a990611ccb565b80156105f65780601f106105cb576101008083540402835291602001916105f6565b820191906000526020600020905b8154815290600101906020018083116105d957829003601f168201915b5050505050815260200160038201805461060f90611ccb565b80601f016020809104026020016040519081016040528092919081815260200182805461063b90611ccb565b80156106885780601f1061065d57610100808354040283529160200191610688565b820191906000526020600020905b81548152906001019060200180831161066b57829003601f168201915b505050505081526020016004820160009054906101000a900460ff161515151581526020016005820154815250508282815181106106c9576106c8611cfc565b5b602002602001018190525080806106df90611d5a565b9150506104e7565b5080935050505090565b6106f96114f2565b600360008373ffffffffffffffffffffffffffffffffffffffff1673ffffffffffffffffffffffffffffffffffffffff16815260200190815260200160002060405180608001604052908160008201805461075390611ccb565b80601f016020809104026020016040519081016040528092919081815260200182805461077f90611ccb565b80156107cc5780601f106107a1576101008083540402835291602001916107cc565b820191906000526020600020905b8154815290600101906020018083116107af57829003601f168201915b505050505081526020016001820180546107e590611ccb565b80601f016020809104026020016040519081016040528092919081815260200182805461081190611ccb565b801561085e5780601f106108335761010080835404028352916020019161085e565b820191906000526020600020905b81548152906001019060200180831161084157829003601f168201915b5050505050815260200160028201805461087790611ccb565b80601f01602080910402602001604051908101604052809291908181526020018280546108a390611ccb565b80156108f05780601f106108c5576101008083540402835291602001916108f0565b820191906000526020600020905b8154815290600101906020018083116108d357829003601f168201915b5050505050815260200160038201805461090990611ccb565b80601f016020809104026020016040519081016040528092919081815260200182805461093590611ccb565b80156109825780601f1061095757610100808354040283529160200191610982565b820191906000526020600020905b81548152906001019060200180831161096557829003601f168201915b5050505050815250509050919050565b662386f26fc1000034146109db576040517f08c379a00000000000000000000000000000000000000000000000000000000081526004016109d290611e14565b60405180910390fd5b6000600260006001548152602001908152602001600020905082816002019081610a059190611fe0565b5081816003019081610a179190611fe0565b50338160000160006101000a81548173ffffffffffffffffffffffffffffffffffffffff021916908373ffffffffffffffffffffffffffffffffffffffff16021790555060008160040160006101000a81548160ff02191690831515021790555060015481600101819055504281600501819055507fc73b5bb33fb601eeec75daf49de95251edc92969aa0758933778a7b8089d7765336001548585600042604051610ac8969594939291906120d0565b60405180910390a160016000815480929190610ae390611d5a565b919050555060008054906101000a900473ffffffffffffffffffffffffffffffffffffffff1673ffffffffffffffffffffffffffffffffffffffff166108fc349081150290604051600060405180830381858888f19350505050158015610b4e573d6000803e3d6000fd5b50505050565b60008054906101000a900473ffffffffffffffffffffffffffffffffffffffff1681565b6060600060015467ffffffffffffffff811115610b9857610b976118a4565b5b604051908082528060200260200182016040528015610bd157816020015b610bbe6114a4565b815260200190600190039081610bb65790505b5090506000805b600154811015610e8657600015156002600083815260200190815260200160002060040160009054906101000a900460ff161515148015610c7a57503373ffffffffffffffffffffffffffffffffffffffff166002600083815260200190815260200160002060000160009054906101000a900473ffffffffffffffffffffffffffffffffffffffff1673ffffffffffffffffffffffffffffffffffffffff16145b15610e7357600260008281526020019081526020016000206040518060c00160405290816000820160009054906101000a900473ffffffffffffffffffffffffffffffffffffffff1673ffffffffffffffffffffffffffffffffffffffff1673ffffffffffffffffffffffffffffffffffffffff16815260200160018201548152602001600282018054610d0d90611ccb565b80601f0160208091040260200160405190810160405280929190818152602001828054610d3990611ccb565b8015610d865780601f10610d5b57610100808354040283529160200191610d86565b820191906000526020600020905b815481529060010190602001808311610d6957829003601f168201915b50505050508152602001600382018054610d9f90611ccb565b80601f0160208091040260200160405190810160405280929190818152602001828054610dcb90611ccb565b8015610e185780601f10610ded57610100808354040283529160200191610e18565b820191906000526020600020905b815481529060010190602001808311610dfb57829003601f168201915b505050505081526020016004820160009054906101000a900460ff16151515158152602001600582015481525050838381518110610e5957610e58611cfc565b5b60200260200101819052508180610e6f90611d5a565b9250505b8080610e7e90611d5a565b915050610bd8565b5060008167ffffffffffffffff811115610ea357610ea26118a4565b5b604051908082528060200260200182016040528015610edc57816020015b610ec96114a4565b815260200190600190039081610ec15790505b50905060005b828110156110e257600260008281526020019081526020016000206040518060c00160405290816000820160009054906101000a900473ffffffffffffffffffffffffffffffffffffffff1673ffffffffffffffffffffffffffffffffffffffff1673ffffffffffffffffffffffffffffffffffffffff16815260200160018201548152602001600282018054610f7890611ccb565b80601f0160208091040260200160405190810160405280929190818152602001828054610fa490611ccb565b8015610ff15780601f10610fc657610100808354040283529160200191610ff1565b820191906000526020600020905b815481529060010190602001808311610fd457829003601f168201915b5050505050815260200160038201805461100a90611ccb565b80601f016020809104026020016040519081016040528092919081815260200182805461103690611ccb565b80156110835780601f1061105857610100808354040283529160200191611083565b820191906000526020600020905b81548152906001019060200180831161106657829003601f168201915b505050505081526020016004820160009054906101000a900460ff161515151581526020016005820154815250508282815181106110c4576110c3611cfc565b5b602002602001018190525080806110da90611d5a565b915050610ee2565b5080935050505090565b6000600360003373ffffffffffffffffffffffffffffffffffffffff1673ffffffffffffffffffffffffffffffffffffffff1681526020019081526020016000209050848160000190816111409190611fe0565b50838160010190816111529190611fe0565b50828160020190816111649190611fe0565b50818160030190816111769190611fe0565b505050505050565b6060806000600154841080611194575060015484115b6111d3576040517f08c379a00000000000000000000000000000000000000000000000000000000081526004016111ca9061218b565b60405180910390fd5b6000600260008681526020019081526020016000209050600015158160040160009054906101000a900460ff16151514611242576040517f08c379a0000000000000000000000000000000000000000000000000000000008152600401611239906121f7565b60405180910390fd5b80600201816003018260000160009054906101000a900473ffffffffffffffffffffffffffffffffffffffff1682805461127b90611ccb565b80601f01602080910402602001604051908101604052809291908181526020018280546112a790611ccb565b80156112f45780601f106112c9576101008083540402835291602001916112f4565b820191906000526020600020905b8154815290600101906020018083116112d757829003601f168201915b5050505050925081805461130790611ccb565b80601f016020809104026020016040519081016040528092919081815260200182805461133390611ccb565b80156113805780601f1061135557610100808354040283529160200191611380565b820191906000526020600020905b81548152906001019060200180831161136357829003601f168201915b50505050509150935093509350509193909250565b3373ffffffffffffffffffffffffffffffffffffffff166002600084815260200190815260200160002060000160009054906101000a900473ffffffffffffffffffffffffffffffffffffffff1673ffffffffffffffffffffffffffffffffffffffff1614611439576040517f08c379a000000000000000000000000000000000000000000000000000000000815260040161143090612289565b60405180910390fd5b806002600084815260200190815260200160002060040160006101000a81548160ff0219169083151502179055507f90c03fdb3ba756f41c01353982e90798d484dbdcc5571fb39be23b1fee59490a82826040516114989291906122a9565b60405180910390a15050565b6040518060c00160405280600073ffffffffffffffffffffffffffffffffffffffff168152602001600081526020016060815260200160608152602001600015158152602001600081525090565b6040518060800160405280606081526020016060815260200160608152602001606081525090565b600081519050919050565b600082825260208201905092915050565b6000819050602082019050919050565b600073ffffffffffffffffffffffffffffffffffffffff82169050919050565b600061157182611546565b9050919050565b61158181611566565b82525050565b6000819050919050565b61159a81611587565b82525050565b600081519050919050565b600082825260208201905092915050565b60005b838110156115da5780820151818401526020810190506115bf565b60008484015250505050565b6000601f19601f8301169050919050565b6000611602826115a0565b61160c81856115ab565b935061161c8185602086016115bc565b611625816115e6565b840191505092915050565b60008115159050919050565b61164581611630565b82525050565b600060c0830160008301516116636000860182611578565b5060208301516116766020860182611591565b506040830151848203604086015261168e82826115f7565b915050606083015184820360608601526116a882826115f7565b91505060808301516116bd608086018261163c565b5060a08301516116d060a0860182611591565b508091505092915050565b60006116e7838361164b565b905092915050565b6000602082019050919050565b60006117078261151a565b6117118185611525565b93508360208202850161172385611536565b8060005b8581101561175f578484038952815161174085826116db565b945061174b836116ef565b925060208a01995050600181019050611727565b50829750879550505050505092915050565b6000602082019050818103600083015261178b81846116fc565b905092915050565b6000604051905090565b600080fd5b600080fd5b6117b081611566565b81146117bb57600080fd5b50565b6000813590506117cd816117a7565b92915050565b6000602082840312156117e9576117e861179d565b5b60006117f7848285016117be565b91505092915050565b6000608083016000830151848203600086015261181d82826115f7565b9150506020830151848203602086015261183782826115f7565b9150506040830151848203604086015261185182826115f7565b9150506060830151848203606086015261186b82826115f7565b9150508091505092915050565b600060208201905081810360008301526118928184611800565b905092915050565b600080fd5b600080fd5b7f4e487b7100000000000000000000000000000000000000000000000000000000600052604160045260246000fd5b6118dc826115e6565b810181811067ffffffffffffffff821117156118fb576118fa6118a4565b5b80604052505050565b600061190e611793565b905061191a82826118d3565b919050565b600067ffffffffffffffff82111561193a576119396118a4565b5b611943826115e6565b9050602081019050919050565b82818337600083830152505050565b600061197261196d8461191f565b611904565b90508281526020810184848401111561198e5761198d61189f565b5b611999848285611950565b509392505050565b600082601f8301126119b6576119b561189a565b5b81356119c684826020860161195f565b91505092915050565b600080604083850312156119e6576119e561179d565b5b600083013567ffffffffffffffff811115611a0457611a036117a2565b5b611a10858286016119a1565b925050602083013567ffffffffffffffff811115611a3157611a306117a2565b5b611a3d858286016119a1565b9150509250929050565b611a5081611566565b82525050565b6000602082019050611a6b6000830184611a47565b92915050565b60008060008060808587031215611a8b57611a8a61179d565b5b600085013567ffffffffffffffff811115611aa957611aa86117a2565b5b611ab5878288016119a1565b945050602085013567ffffffffffffffff811115611ad657611ad56117a2565b5b611ae2878288016119a1565b935050604085013567ffffffffffffffff811115611b0357611b026117a2565b5b611b0f878288016119a1565b925050606085013567ffffffffffffffff811115611b3057611b2f6117a2565b5b611b3c878288016119a1565b91505092959194509250565b611b5181611587565b8114611b5c57600080fd5b50565b600081359050611b6e81611b48565b92915050565b600060208284031215611b8a57611b8961179d565b5b6000611b9884828501611b5f565b91505092915050565b600082825260208201905092915050565b6000611bbd826115a0565b611bc78185611ba1565b9350611bd78185602086016115bc565b611be0816115e6565b840191505092915050565b60006060820190508181036000830152611c058186611bb2565b90508181036020830152611c198185611bb2565b9050611c286040830184611a47565b949350505050565b611c3981611630565b8114611c4457600080fd5b50565b600081359050611c5681611c30565b92915050565b60008060408385031215611c7357611c7261179d565b5b6000611c8185828601611b5f565b9250506020611c9285828601611c47565b9150509250929050565b7f4e487b7100000000000000000000000000000000000000000000000000000000600052602260045260246000fd5b60006002820490506001821680611ce357607f821691505b602082108103611cf657611cf5611c9c565b5b50919050565b7f4e487b7100000000000000000000000000000000000000000000000000000000600052603260045260246000fd5b7f4e487b7100000000000000000000000000000000000000000000000000000000600052601160045260246000fd5b6000611d6582611587565b91507fffffffffffffffffffffffffffffffffffffffffffffffffffffffffffffffff8203611d9757611d96611d2b565b5b600182019050919050565b7f302e3031204d4154494320697320726571756972656420746f20706f7374206160008201527f2054776565740000000000000000000000000000000000000000000000000000602082015250565b6000611dfe602683611ba1565b9150611e0982611da2565b604082019050919050565b60006020820190508181036000830152611e2d81611df1565b9050919050565b60008190508160005260206000209050919050565b60006020601f8301049050919050565b600082821b905092915050565b600060088302611e967fffffffffffffffffffffffffffffffffffffffffffffffffffffffffffffffff82611e59565b611ea08683611e59565b95508019841693508086168417925050509392505050565b6000819050919050565b6000611edd611ed8611ed384611587565b611eb8565b611587565b9050919050565b6000819050919050565b611ef783611ec2565b611f0b611f0382611ee4565b848454611e66565b825550505050565b600090565b611f20611f13565b611f2b818484611eee565b505050565b5b81811015611f4f57611f44600082611f18565b600181019050611f31565b5050565b601f821115611f9457611f6581611e34565b611f6e84611e49565b81016020851015611f7d578190505b611f91611f8985611e49565b830182611f30565b50505b505050565b600082821c905092915050565b6000611fb760001984600802611f99565b1980831691505092915050565b6000611fd08383611fa6565b9150826002028217905092915050565b611fe9826115a0565b67ffffffffffffffff811115612002576120016118a4565b5b61200c8254611ccb565b612017828285611f53565b600060209050601f83116001811461204a5760008415612038578287015190505b6120428582611fc4565b8655506120aa565b601f19841661205886611e34565b60005b828110156120805784890151825560018201915060208501945060208101905061205b565b8683101561209d5784890151612099601f891682611fa6565b8355505b6001600288020188555050505b505050505050565b6120bb81611587565b82525050565b6120ca81611630565b82525050565b600060c0820190506120e56000830189611a47565b6120f260208301886120b2565b81810360408301526121048187611bb2565b905081810360608301526121188186611bb2565b905061212760808301856120c1565b61213460a08301846120b2565b979650505050505050565b7f4e6f207375636820747765657420657869737473212100000000000000000000600082015250565b6000612175601683611ba1565b91506121808261213f565b602082019050919050565b600060208201905081810360008301526121a481612168565b9050919050565b7f547765657420686173206265656e2064656c6574656421210000000000000000600082015250565b60006121e1601883611ba1565b91506121ec826121ab565b602082019050919050565b60006020820190508181036000830152612210816121d4565b9050919050565b7f5477656574206f776e65722063616e206f6e6c792064656c657465206120547760008201527f6565742121000000000000000000000000000000000000000000000000000000602082015250565b6000612273602583611ba1565b915061227e82612217565b604082019050919050565b600060208201905081810360008301526122a281612266565b9050919050565b60006040820190506122be60008301856120b2565b6122cb60208301846120c1565b939250505056fea2646970667358221220cfac95c866a2dde8dba6d144d31e53bec63ab9fecf39c5e5e8de3dd47674276364736f6c63430008120033",
  "linkReferences": {},
  "deployedLinkReferences": {}
}